{
  "contractName": "Acid",
  "abi": [
    {
      "inputs": [],
      "payable": false,
      "stateMutability": "nonpayable",
      "type": "constructor"
    },
    {
      "anonymous": false,
      "inputs": [
        {
          "indexed": true,
          "internalType": "address",
          "name": "user",
          "type": "address"
        },
        {
          "indexed": true,
          "internalType": "uint256",
          "name": "dgds",
          "type": "uint256"
        },
        {
          "indexed": false,
          "internalType": "uint256",
          "name": "refundAmount",
          "type": "uint256"
        }
      ],
      "name": "Refund",
      "type": "event"
    },
    {
      "constant": true,
      "inputs": [],
      "name": "dgdTokenContract",
      "outputs": [
        {
          "internalType": "address",
          "name": "",
          "type": "address"
        }
      ],
      "payable": false,
      "stateMutability": "view",
      "type": "function"
    },
    {
      "constant": true,
      "inputs": [],
      "name": "isInitialized",
      "outputs": [
        {
          "internalType": "bool",
          "name": "",
          "type": "bool"
        }
      ],
      "payable": false,
      "stateMutability": "view",
      "type": "function"
    },
    {
      "constant": true,
      "inputs": [],
      "name": "owner",
      "outputs": [
        {
          "internalType": "address",
          "name": "",
          "type": "address"
        }
      ],
      "payable": false,
      "stateMutability": "view",
      "type": "function"
    },
    {
      "constant": true,
      "inputs": [],
      "name": "weiPerNanoDGD",
      "outputs": [
        {
          "internalType": "uint256",
          "name": "",
          "type": "uint256"
        }
      ],
      "payable": false,
      "stateMutability": "view",
      "type": "function"
    },
    {
      "constant": false,
      "inputs": [
        {
          "internalType": "uint256",
          "name": "_weiPerNanoDGD",
          "type": "uint256"
        },
        {
          "internalType": "address",
          "name": "_dgdTokenContract",
          "type": "address"
        }
      ],
      "name": "init",
      "outputs": [
        {
          "internalType": "bool",
          "name": "_success",
          "type": "bool"
        }
      ],
      "payable": false,
      "stateMutability": "nonpayable",
      "type": "function"
    },
    {
      "constant": false,
      "inputs": [],
      "name": "burn",
      "outputs": [
        {
          "internalType": "bool",
          "name": "_success",
          "type": "bool"
        }
      ],
      "payable": false,
      "stateMutability": "nonpayable",
      "type": "function"
    }
  ],
  "bytecode": "0x608060405234801561001057600080fd5b506000600160006101000a81548160ff02191690831515021790555061060d8061003b6000396000f3fe608060405234801561001057600080fd5b50600436106100625760003560e01c8063392e53cd1461006757806341232f6b1461008957806344df8e70146100d3578063456a7cd8146100f55780638da5cb5b14610113578063b792e6ec1461015d575b600080fd5b61006f6101c3565b604051808215151515815260200191505060405180910390f35b6100916101d6565b604051808273ffffffffffffffffffffffffffffffffffffffff1673ffffffffffffffffffffffffffffffffffffffff16815260200191505060405180910390f35b6100db6101fb565b604051808215151515815260200191505060405180910390f35b6100fd6104e5565b6040518082815260200191505060405180910390f35b61011b6104eb565b604051808273ffffffffffffffffffffffffffffffffffffffff1673ffffffffffffffffffffffffffffffffffffffff16815260200191505060405180910390f35b6101a96004803603604081101561017357600080fd5b8101908080359060200190929190803573ffffffffffffffffffffffffffffffffffffffff169060200190929190505050610511565b604051808215151515815260200191505060405180910390f35b600160009054906101000a900460ff1681565b6001809054906101000a900473ffffffffffffffffffffffffffffffffffffffff1681565b6000600160009054906101000a900460ff1661021657600080fd5b60006001809054906101000a900473ffffffffffffffffffffffffffffffffffffffff1673ffffffffffffffffffffffffffffffffffffffff166370a08231336040518263ffffffff1660e01b8152600401808273ffffffffffffffffffffffffffffffffffffffff1673ffffffffffffffffffffffffffffffffffffffff16815260200191505060206040518083038186803b1580156102b657600080fd5b505afa1580156102ca573d6000803e3d6000fd5b505050506040513d60208110156102e057600080fd5b8101908080519060200190929190505050905060008054820290506001809054906101000a900473ffffffffffffffffffffffffffffffffffffffff1673ffffffffffffffffffffffffffffffffffffffff166323b872dd336000856040518463ffffffff1660e01b8152600401808473ffffffffffffffffffffffffffffffffffffffff1673ffffffffffffffffffffffffffffffffffffffff1681526020018373ffffffffffffffffffffffffffffffffffffffff1673ffffffffffffffffffffffffffffffffffffffff1681526020018281526020019350505050602060405180830381600087803b1580156103d857600080fd5b505af11580156103ec573d6000803e3d6000fd5b505050506040513d602081101561040257600080fd5b810190808051906020019092919050505061041c57600080fd5b60003390508073ffffffffffffffffffffffffffffffffffffffff1682620249f090604051806000019050600060405180830381858888f193505050503d8060008114610485576040519150601f19603f3d011682016040523d82523d6000602084013e61048a565b606091505b505080945050828173ffffffffffffffffffffffffffffffffffffffff167f73f04af9dcc582a923ec15d3eea990fe34adabfff2879e28d44572e01a54abb6846040518082815260200191505060405180910390a350505090565b60005481565b600260009054906101000a900473ffffffffffffffffffffffffffffffffffffffff1681565b60003373ffffffffffffffffffffffffffffffffffffffff16600260009054906101000a900473ffffffffffffffffffffffffffffffffffffffff1673ffffffffffffffffffffffffffffffffffffffff161461056d57600080fd5b82600081905550816001806101000a81548173ffffffffffffffffffffffffffffffffffffffff021916908373ffffffffffffffffffffffffffffffffffffffff16021790555060018060006101000a81548160ff021916908315150217905550600190509291505056fea265627a7a72315820c958beaa6b014704a2f12b87b8d255d9d717019571546a32c285d52cc907921864736f6c634300050c0032",
  "source": "pragma solidity ^0.5.0;\n\nimport \"./DGDInterface.sol\";\n\ncontract Acid {\n  \n  event Refund(address indexed user, uint256 indexed dgds, uint256 refundAmount);\n\n  // wei refunded per 0.000000001 DGD burned\n  uint256 public weiPerNanoDGD;\n  bool public isInitialized;\n  address public dgdTokenContract;\n  address public owner;\n\n  modifier isOwner() {\n    require(owner == msg.sender);\n    _;\n  }\n\n  modifier requireInitialized() {\n    require(isInitialized);\n    _;\n  }\n\n  constructor() public {\n    isInitialized = false;\n  }\n\n  function init(uint256 _weiPerNanoDGD, address _dgdTokenContract) public isOwner() returns (bool _success) {\n    weiPerNanoDGD = _weiPerNanoDGD;\n    dgdTokenContract = _dgdTokenContract;\n    isInitialized = true;\n    _success = true;\n  }\n\n  function burn() requireInitialized() public returns (bool _success) {\n    // Rate will be calculated based on the nearest decimal\n    uint256 _amount = DGDInterface(dgdTokenContract).balanceOf(msg.sender);\n    uint256 _wei = _amount * weiPerNanoDGD;\n    require(DGDInterface(dgdTokenContract).transferFrom(msg.sender, 0x0000000000000000000000000000000000000000, _amount));\n    address _user = msg.sender;\n    (_success,) = _user.call.value(_wei).gas(150000)('');\n    emit Refund(_user, _amount, _wei);\n  }\n\n\n}\n",
  "sourcePath": "/Users/aeufemio/projects/dgx/contracts/Acid/contracts/Acid.sol",
  "compiler": {
    "name": "solc",
    "version": "0.5.12+commit.7709ece9.Emscripten.clang"
  },
  "schemaVersion": "3.0.19",
  "updatedAt": "2019-12-06T04:13:24.836Z",
  "networkType": "ethereum",
  "devdoc": {
    "methods": {}
  },
  "userdoc": {
    "methods": {}
  }
}