{
  "contractName": "Acid",
  "abi": [
    {
      "inputs": [],
      "payable": false,
      "stateMutability": "nonpayable",
      "type": "constructor"
    },
    {
      "anonymous": false,
      "inputs": [
        {
          "indexed": true,
          "internalType": "address",
          "name": "user",
          "type": "address"
        },
        {
          "indexed": true,
          "internalType": "uint256",
          "name": "dgds",
          "type": "uint256"
        },
        {
          "indexed": false,
          "internalType": "uint256",
          "name": "refundAmount",
          "type": "uint256"
        }
      ],
      "name": "Refund",
      "type": "event"
    },
    {
      "payable": true,
      "stateMutability": "payable",
      "type": "fallback"
    },
    {
      "constant": true,
      "inputs": [],
      "name": "dgdTokenContract",
      "outputs": [
        {
          "internalType": "address",
          "name": "",
          "type": "address"
        }
      ],
      "payable": false,
      "stateMutability": "view",
      "type": "function"
    },
    {
      "constant": true,
      "inputs": [],
      "name": "isInitialized",
      "outputs": [
        {
          "internalType": "bool",
          "name": "",
          "type": "bool"
        }
      ],
      "payable": false,
      "stateMutability": "view",
      "type": "function"
    },
    {
      "constant": true,
      "inputs": [],
      "name": "owner",
      "outputs": [
        {
          "internalType": "address",
          "name": "",
          "type": "address"
        }
      ],
      "payable": false,
      "stateMutability": "view",
      "type": "function"
    },
    {
      "constant": true,
      "inputs": [],
      "name": "weiPerNanoDGD",
      "outputs": [
        {
          "internalType": "uint256",
          "name": "",
          "type": "uint256"
        }
      ],
      "payable": false,
      "stateMutability": "view",
      "type": "function"
    },
    {
      "constant": false,
      "inputs": [
        {
          "internalType": "uint256",
          "name": "_weiPerNanoDGD",
          "type": "uint256"
        },
        {
          "internalType": "address",
          "name": "_dgdTokenContract",
          "type": "address"
        }
      ],
      "name": "init",
      "outputs": [
        {
          "internalType": "bool",
          "name": "_success",
          "type": "bool"
        }
      ],
      "payable": false,
      "stateMutability": "nonpayable",
      "type": "function"
    },
    {
      "constant": false,
      "inputs": [],
      "name": "burn",
      "outputs": [
        {
          "internalType": "bool",
          "name": "_success",
          "type": "bool"
        }
      ],
      "payable": false,
      "stateMutability": "nonpayable",
      "type": "function"
    }
  ],
  "bytecode": "0x608060405234801561001057600080fd5b5033600260006101000a81548173ffffffffffffffffffffffffffffffffffffffff021916908373ffffffffffffffffffffffffffffffffffffffff1602179055506000600160006101000a81548160ff02191690831515021790555061064b8061007c6000396000f3fe6080604052600436106100555760003560e01c8063392e53cd1461005757806341232f6b1461008657806344df8e70146100dd578063456a7cd81461010c5780638da5cb5b14610137578063b792e6ec1461018e575b005b34801561006357600080fd5b5061006c610201565b604051808215151515815260200191505060405180910390f35b34801561009257600080fd5b5061009b610214565b604051808273ffffffffffffffffffffffffffffffffffffffff1673ffffffffffffffffffffffffffffffffffffffff16815260200191505060405180910390f35b3480156100e957600080fd5b506100f2610239565b604051808215151515815260200191505060405180910390f35b34801561011857600080fd5b50610121610523565b6040518082815260200191505060405180910390f35b34801561014357600080fd5b5061014c610529565b604051808273ffffffffffffffffffffffffffffffffffffffff1673ffffffffffffffffffffffffffffffffffffffff16815260200191505060405180910390f35b34801561019a57600080fd5b506101e7600480360360408110156101b157600080fd5b8101908080359060200190929190803573ffffffffffffffffffffffffffffffffffffffff16906020019092919050505061054f565b604051808215151515815260200191505060405180910390f35b600160009054906101000a900460ff1681565b6001809054906101000a900473ffffffffffffffffffffffffffffffffffffffff1681565b6000600160009054906101000a900460ff1661025457600080fd5b60006001809054906101000a900473ffffffffffffffffffffffffffffffffffffffff1673ffffffffffffffffffffffffffffffffffffffff166370a08231336040518263ffffffff1660e01b8152600401808273ffffffffffffffffffffffffffffffffffffffff1673ffffffffffffffffffffffffffffffffffffffff16815260200191505060206040518083038186803b1580156102f457600080fd5b505afa158015610308573d6000803e3d6000fd5b505050506040513d602081101561031e57600080fd5b8101908080519060200190929190505050905060008054820290506001809054906101000a900473ffffffffffffffffffffffffffffffffffffffff1673ffffffffffffffffffffffffffffffffffffffff166323b872dd336000856040518463ffffffff1660e01b8152600401808473ffffffffffffffffffffffffffffffffffffffff1673ffffffffffffffffffffffffffffffffffffffff1681526020018373ffffffffffffffffffffffffffffffffffffffff1673ffffffffffffffffffffffffffffffffffffffff1681526020018281526020019350505050602060405180830381600087803b15801561041657600080fd5b505af115801561042a573d6000803e3d6000fd5b505050506040513d602081101561044057600080fd5b810190808051906020019092919050505061045a57600080fd5b60003390508073ffffffffffffffffffffffffffffffffffffffff1682620249f090604051806000019050600060405180830381858888f193505050503d80600081146104c3576040519150601f19603f3d011682016040523d82523d6000602084013e6104c8565b606091505b505080945050828173ffffffffffffffffffffffffffffffffffffffff167f73f04af9dcc582a923ec15d3eea990fe34adabfff2879e28d44572e01a54abb6846040518082815260200191505060405180910390a350505090565b60005481565b600260009054906101000a900473ffffffffffffffffffffffffffffffffffffffff1681565b60003373ffffffffffffffffffffffffffffffffffffffff16600260009054906101000a900473ffffffffffffffffffffffffffffffffffffffff1673ffffffffffffffffffffffffffffffffffffffff16146105ab57600080fd5b82600081905550816001806101000a81548173ffffffffffffffffffffffffffffffffffffffff021916908373ffffffffffffffffffffffffffffffffffffffff16021790555060018060006101000a81548160ff021916908315150217905550600190509291505056fea265627a7a7231582005881ca1c031b217d167da5823df097915fd3aa08569be28f9b61763c850562164736f6c634300050c0032",
  "source": "pragma solidity ^0.5.0;\n\nimport \"./DGDInterface.sol\";\n\ncontract Acid {\n  \n  event Refund(address indexed user, uint256 indexed dgds, uint256 refundAmount);\n\n  // wei refunded per 0.000000001 DGD burned\n  uint256 public weiPerNanoDGD;\n  bool public isInitialized;\n  address public dgdTokenContract;\n  address public owner;\n\n  modifier isOwner() {\n    require(owner == msg.sender);\n    _;\n  }\n\n  modifier requireInitialized() {\n    require(isInitialized);\n    _;\n  }\n\n  constructor() public {\n    owner = msg.sender;\n    isInitialized = false;\n  }\n\n  function () external payable {}  \n\n  function init(uint256 _weiPerNanoDGD, address _dgdTokenContract) public isOwner() returns (bool _success) {\n    weiPerNanoDGD = _weiPerNanoDGD;\n    dgdTokenContract = _dgdTokenContract;\n    isInitialized = true;\n    _success = true;\n  }\n\n  function burn() requireInitialized() public returns (bool _success) {\n    // Rate will be calculated based on the nearest decimal\n    uint256 _amount = DGDInterface(dgdTokenContract).balanceOf(msg.sender);\n    uint256 _wei = _amount * weiPerNanoDGD;\n    require(DGDInterface(dgdTokenContract).transferFrom(msg.sender, 0x0000000000000000000000000000000000000000, _amount));\n    address _user = msg.sender;\n    (_success,) = _user.call.value(_wei).gas(150000)('');\n    emit Refund(_user, _amount, _wei);\n  }\n\n\n}\n",
  "sourcePath": "/Users/aeufemio/projects/dgx/contracts/Acid/contracts/Acid.sol",
  "compiler": {
    "name": "solc",
    "version": "0.5.12+commit.7709ece9.Emscripten.clang"
  },
  "schemaVersion": "3.0.19",
  "updatedAt": "2019-12-06T14:27:53.003Z",
  "networkType": "ethereum",
  "devdoc": {
    "methods": {}
  },
  "userdoc": {
    "methods": {}
  }
}